:1000000042C05CC0DCC15AC059C058C057C056C0BD
:1000100055C054C053C052C051C050C04FC0B1CAE7
:100020005BC8ACC8C9C8F2C822C939C956C996C983
:1000300097C9A9C9B8C9E4C9E7C924CA74CA7ECA9C
:100040000902190001010080640904000001FF0099
:100050000000070581030800641201100100000080
:100060000881179F0C04010002000116035500537C
:10007000004200740069006E00790053005000498E
:1000800000040309040011241FBECFE5D2E0DEBF47
:10009000CDBF10E0A0E6B0E0E8E1F6E102C00590D7
:1000A0000D92A636B107D9F710E0A6E6B0E001C080
:1000B0001D92AD3CB107E1F7BAD7ACCAA1CFCF933F
:1000C000C62F2091910024FF07C02091920038E8AC
:1000D00023272093920003C02AE5209391002C2F20
:1000E000FC01A3E9B0E081918D9321501216DCF35D
:1000F00083E990E06C2F4CD1CC5FC0939100CF91FD
:100100000895CF93DF936091A200635067FDAFC065
:1001100020919F008CE090E0821B9109EC01CA5570
:10012000DF4F20919E002D3209F08FC0683009F01A
:100130009CC023EC209386002AE520936000109257
:1001400066002881207631F0CE01D7D38F3F09F4A5
:100150006BC071C03A8110928F002981222331F443
:10016000109290002FE830E082E059C0253019F459
:100170003093A30051C02630C9F5FC01E855FF4F6C
:10018000208187559F4FFC018081813041F489E5B2
:1001900090E09093A1008093A00082E123C0823080
:1001A00041F480E490E09093A1008093A00089E165
:1001B00019C08330B1F4222341F481E890E0909398
:1001C000A1008093A00084E00DC0213051F02230C6
:1001D00041F48BE690E09093A1008093A00086E12B
:1001E00001C080E090E49093660025C0283069F05B
:1001F000293019F43093A5000FC02A3049F02B3074
:1002000059F48BE48093920007C025EA30E002C0E5
:100210002FE830E081E003C02FE830E080E0309349
:10022000A1002093A00007C0988197FD8E8190E8DF
:100230009093660007C09F81992321F49E819817AF
:1002400008F4892F8093610010C08091660087FFB9
:100250000CC0CE0105D38F3F21F48EE18093600066
:1002600004C0882311F0109261001092A2008091C6
:10027000600084FF54C0809161008F3F09F44FC03B
:10028000C82F893008F0C8E08C1B809361008091F2
:10029000860098E8892780938600CC2379F1209105
:1002A000660027FF08C087E890E06C2FB9D2C82FFE
:1002B000893078F523C08091A0009091A10026FF9D
:1002C0000AC0FC012C2FA7E8B0E034913D93319691
:1002D0002150D9F708C0DC012C2FE7E8F0E03D9170
:1002E00031932150E1F72C2F215030E02F5F3F4F09
:1002F000280F391F3093A1002093A00087E890E0D9
:100300006C2F46D0CC5FCC3041F08FEF80936100F2
:1003100004C08FEF80936100CEE1C093600084E160
:1003200096B3987131F48150D9F71092A3001092CE
:100330009D00C1E08111C0E0809167008C1729F019
:10034000CC2309F4F1D4C0936700DF91CF910895D5
:10035000AC9A8BB780628BBF8BE4809392008AE566
:10036000809391000895A82FB92F80E090E041E09C
:1003700050EA609530E009C02D91822797958795C6
:1003800010F084279527305EC8F36F5FA8F30895B7
:10039000EADF8D939D930895A6E088279927AA9573
:1003A00069F00197E1F3B399FCCFB39BFECF81E0F5
:1003B0009927A6B3019611F0A871D9F70895CF93A4
:1003C000CFB7CF93C395B39BE9F7B39B0BC0B39B58
:1003D00009C0B39B07C0B39B05C0B39B03C0B39BCD
:1003E00001C0D5C00F92DF93C0919F00DD27CA5591
:1003F000DF4F012EB39B03C0DF910F90E6CF2F9309
:100400000F931F934F932FEF4F6F06B303FB20F90A
:100410005F933F9350E03BE065C016B3012650293F
:1004200053FDC89556B3012703FB25F92F7306B377
:10043000B1F05027102713FB26F906B22230F0F056
:1004400000C016B3012703FB27F90126502906B285
:100450002430E8F54F77206816B30000F6CF502718
:100460004F7D206206B2102F000000C006B30026A8
:100470005029102713FB26F906B2E2CF4F7B06B3B3
:10048000206400C0DACF01265029187106B269F144
:100490004E7F2160012F16B328C0002650294D7FC2
:1004A00006B22260102F29C0012650294B7F06B2C8
:1004B0002460012F2DC016B301265029477F2860E4
:1004C000000006B22EC04F7E06B3206130C0422726
:1004D00006B3499300265029102706B24FEF13FBAD
:1004E00020F9297F16B379F2187159F101265029A4
:1004F00006B2012703FB21F9237F06B371F2002620
:1005000050293150D0F006B2102713FB22F9277E74
:1005100016B351F201265029012703FB06B223F935
:100520002F7C49F2000006B3102713FB24F90026A4
:10053000502906B22F7939F270CF10E21ABF002786
:1005400019C03B503195C31BD04010E21ABF08813F
:10055000033C09F10B34F9F020919D001981110F32
:100560001213EDCF4A81441F093651F10D3211F0BB
:10057000013E29F70093A4003F915F914F911F9195
:100580000F912F91DF910F90CAB7C5FD1BCFCF916F
:10059000CFBFCF9118952091A400222369F3109129
:1005A000A200112379F534307AF13093A200209320
:1005B0009E0010919F003BE0311B30939F0024C0B0
:1005C0000091A2000130F4F40AE54F7049F4309133
:1005D000600034FD1AC000936000C6E8D0E019C086
:1005E0003091910034FD11C000939100C2E9D0E038
:1005F00010C0052710E000C021C0052710E0C895F5
:1006000008BB14C03AE501C032ED032EC0E0D0E0D3
:1006100032E017B31861C39A08B317BB58E120E85A
:100620004FEF20FF052708BB279517951C3F28F79C
:1006300000004552B0F720FF0527279508BB179506
:100640001C3FB8F629913A9561F7077E1091A300F7
:10065000110F08BBC250D04011F010939D0010E262
:100660001ABF086017B3177E402F477E54E05A9593
:10067000F1F708BB17BB48BB7FCFFC01DB0134E0BF
:10068000519188E090E040E820E0642F652309F074
:10069000C09A60916300062E00C0000000000000B8
:1006A0000A94D1F7C29A60916300062E00C0000040
:1006B000000000000A94D1F7220FB1992F5FC09873
:1006C000C2984695019709F72D933150C9F60895C0
:1006D00080916D0090916E009C012F5F3F4F309391
:1006E0006E0020936D0020916F0027FF02C0880FDD
:1006F000991F2093700080FF03C028602093700032
:10070000292F2695209371009695879580937200E6
:1007100080E790E069E670E0B0DF0895B99A24E0E0
:1007200030E0E1E09E2F982321F098B39C7F926007
:1007300002C098B39C7F98BBEE0F10927F0007C059
:1007400045E04A95F1F700C09F5F90937F0090913C
:100750007F00692F70E0409164005091650064173C
:10076000750770F3C09A10927F0007C045E04A9564
:10077000F1F700C09F5F90937F0090917F00692FF9
:1007800070E040916400509165006417750770F344
:100790002150304039F688B38C7F88BB0895B99AD0
:1007A00028E030E0E1E09E2F982321F098B39C7F71
:1007B000926002C098B39C7F98BBEE0F10927F00AE
:1007C00007C045E04A95F1F700C09F5F90937F0016
:1007D00090917F00692F70E0409164005091650016
:1007E0006417750770F3C09A10927F0007C045E048
:1007F0004A95F1F700C09F5F90937F0090917F0032
:10080000692F70E04091640050916500641775078E
:1008100070F32150304039F688B38C7F88BB08953F
:10082000EF92FF921F93CF93DF930F92CDB7DEB776
:10083000182F862FE12EF92E08C0898349DF909169
:100840006C00F70191937F0189819E2D911B981770
:10085000A0F30F90DF91CF911F91FF90EF9008953B
:10086000DF92EF92FF920F931F93CF93DF93182F96
:10087000062FE82EF92E50E6D52E32C0F7018191D1
:100880007F018093730024DF809170008D25809319
:100890007000C0E0D0E01DC080E790E069E670E045
:1008A000ECDE80916C0090917300891741F4909177
:1008B0007400891721F090917500891789F42091AF
:1008C000630030E045E0220F331F4A95E1F7C20F85
:1008D000D31F8091760090917700C817D907E0F276
:1008E0008E2D811B801750F281E0DF91CF911F91F7
:1008F0000F91FF90EF90DF900895CF93DF93EC017D
:100900004981442341F481E28983D093A100C093BB
:10091000A00088E006C2413011F486B308C15A81B4
:10092000423011F458BBFCC1652F677081E090E044
:10093000062E02C0880F991F0A94E2F7282F433031
:1009400019F498B3822F9AC0443019F488B3822BDB
:1009500097C0453049F450936300B99887B38562D6
:1009600087BB88B3887D8CC0463049F4B898C0985E
:10097000B998C198BA98C298BD98C598D1C1473066
:1009800051F4CE010296BE0178DED093A100C0934F
:10099000A00084E0C6C1483031F4509374008B81CC
:1009A00080937500BDC12C813D8130936E002093F2
:1009B0006D00493011F480E211C04B3011F480EA2F
:1009C0000DC02A813B8130937700209376004A3016
:1009D00011F480E403C04C3029F480EC80936F0064
:1009E0008FEF9FC14D3029F497B38095892387BB42
:1009F00097C14E3021F497B3982B97BB91C14F30DC
:100A000009F5552329F48091780087B9A59A0CC07F
:100A1000513031F480917800816087B9A29A04C086
:100A2000523011F48FE887B9369A3699FECF84B1E7
:100A3000888385B18983D093A100C093A00014BAA4
:100A400082E06FC1403159F4B89AB99A8AB5806A88
:100A50008ABD8AB583608ABD83B7856039C041315C
:100A600021F459BD8C8188BD5BC1423121F498B31A
:100A7000982B98BB55C1433129F498B380958923AD
:100A800088BB4EC1443159F426B330E028233923C2
:100A900002C0359527956A95E2F7288349C046310B
:100AA00069F5552319F483B78B7F24C0513031F495
:100AB00083B78B7F83BF83B7826013C0523051F4FA
:100AC00083B78B7F83BF83B7826083BF83B7816027
:100AD00083BF26C1533049F483B7846083BF83B793
:100AE0008D7F83BF83B78E7FF3CF543009F018C159
:100AF00083B7846083BF83B78D7FE7CF4F3149F4DD
:100B00009B8180E0850F911D909365008093640028
:100B100007C1403219F41ABC13BE02C1413221F49C
:100B20005093C50081E0B2C0423241F482E1888333
:100B3000D093A100C093A00081E0F3C04332D9F468
:100B4000379A86B19A81892B86B98B81813049F099
:100B5000813020F0823009F0E3C007C010927800A5
:100B6000DFC080917800806803C080917800806940
:100B700080937800D5C0483249F48CEB90E0909394
:100B8000A1008093A0008091C400CBC0493211F431
:100B900082E07CC04A3211F483E00BC04B3211F486
:100BA00084E074C04C3211F488E070C04D3231F4EE
:100BB00089E0809368005093C500B2C04E3251F472
:100BC0008BE0809368005093C5008B818093C600B2
:100BD0008C8134C04F3259F4513031F4B89AB99AFB
:100BE000BA9A509379009CC01092790099C0403312
:100BF00049F450937A008B8180937B008C818093A1
:100C00007C008EC0413329F450937D0010927E0009
:100C100087C0423311F485E039C0433321F4509347
:100C2000C50086E033C0443361F4509368008B8183
:100C30008093C5008C818093C6008D818093C7000E
:100C40006FC0453369F45093C5008B818093C60013
:100C50008C818093C7008D818093C80080E116C08D
:100C6000842F90E0807F9070803D910591F44770D3
:100C70004093C5005093C6008B818093C7008C8140
:100C80008093C8008D818093C9008EE080936800B6
:100C900047C0803E910501F58AE080936800842F6B
:100CA00087708093C50048704093C60010927F0003
:100CB00080E00BC090E00296FE01E80FF91F308142
:100CC0008B539F4FFC013083822F9091C500282FBA
:100CD0002F5F891778F322C0803F910509F587E0DF
:100CE00080936800842F88708093C500477040937C
:100CF000C60010927F0080E00BC090E00296FE01DB
:100D0000E80FF91F30818B539F4FFC013083822FF6
:100D10009091C600282F2F5F891778F380937F006A
:100D200080E0DF91CF910895DF92EF92FF920F93D1
:100D30001F93CF93DF93C8E0D0E010E000E8D02EFF
:100D4000D10ED1BE29DB7C0184E3E81689E0F806E8
:100D50000CF41D2D0695219791F7812F815081BFAD
:100D6000C12FD0E0219610C017DB8453994097FF24
:100D700003C0909581959F4F8E159F0514F411B770
:100D80007C0181B78F5F81BF81B790E0C817D90719
:100D90005CF711BF61B780E090E02ED4DF91CF9176
:100DA0001F910F91FF90EF90DF900895882311F02D
:100DB000B89801C0B89ABA9810927F0007C025E091
:100DC0002A95F1F700C09F5F90937F0090917F007C
:100DD000492F50E020917D0030917E00421753074B
:100DE00070F3BA9A10927F0007C025E02A95F1F7B8
:100DF00000C09F5F90937F0090917F00492F50E04B
:100E000020917D0030917E004217530770F38111CD
:100E1000B89A0895B898BA9810927F0007C025E054
:100E20002A95F1F700C04F5F40937F0040917F000B
:100E3000242F30E080917D0090917E0028173907A3
:100E400070F386B3BA9A10927F0007C025E02A9506
:100E5000F1F700C09F5F90937F0090917F00492F32
:100E600050E020917D0030917E004217530770F3CF
:100E70008170089588B38A7F88BBBA98B898109219
:100E80007F0007C085E08A95F1F700C04F5F40936F
:100E90007F0040917F00242F30E080917D00909171
:100EA0007E002817390770F3089587B38A7F87BBC0
:100EB00010927F0007C085E08A95F1F700C04F5F70
:100EC00040937F0040917F00242F30E080917D008F
:100ED00090917E002817390770F3B89A10927F001E
:100EE00007C085E08A95F1F700C04F5F40937F000F
:100EF00040917F00242F30E080917D0090917E0012
:100F00002817390770F3BA9A10927F0007C085E05E
:100F10008A95F1F700C04F5F40937F0040917F00BA
:100F2000242F30E080917D0090917E0028173907B2
:100F300070F30895B89ABA9A10927F0007C085E0BE
:100F40008A95F1F700C04F5F40937F0040917F008A
:100F5000242F30E080917D0090917E002817390782
:100F600070F3BA9810927F0007C085E08A95F1F778
:100F700000C04F5F40937F0040917F00242F30E0FE
:100F800080917D0090917E002817390770F3B89802
:100F900010927F0007C085E08A95F1F700C04F5F8F
:100FA00040937F0040917F00242F30E080917D00AE
:100FB00090917E002817390770F30895CF93DF933F
:100FC000D82FC8E08D2F8078F1DEDD0FC150D1F72A
:100FD00021DFDF91CF9108951F93CF93DF93182FD7
:100FE000D8E0C0E0CC0F16DFC82BD150D9F71123C1
:100FF00011F080E001C081E0D9DE10927F0007C0CF
:1010000095E09A95F1F700C08F5F80937F00809103
:101010007F00482F50E020917D0030917E004217E4
:10102000530770F38C2FDF91CF911F91089580E2C9
:1010300087BB88BB80E090E0D7D28F3F09F081BFAB
:10104000BB9A84E1E2EBF1EF3197F1F700C00000C9
:101050008150C1F7BB9885E090E090937E0080932B
:101060007D0010926500109264002EE088E190E00F
:101070000FB6F894A89581BD0FBE21BD10928000D7
:10108000109281001092820010927A0010927B00E0
:1010900010927C00109283001092680059D97894C5
:1010A000B898C098B998C198BA98C298BD98C59890
:1010B00011E00BE1FAE1FF2EA0E4EA2EB0E8DB2E0E
:1010C000A8951FD8E0916800F0E0E131F10508F043
:1010D00056C2E15FFF4F0994B89AB998BA9AC29A7A
:1010E0001092BC008091C50080938400D09285004E
:1010F0003FC0C09840E005C0F5E0FA95F1F700C0A8
:101100004F5F242F30E08091640090916500281794
:10111000390790F38091850090918400892309F02C
:10112000C09AC2988091BC00880F8093BC00209127
:10113000BC0086B390E08270907095958795280FDB
:101140002093BC0040E005C025E02A95F1F700C0DF
:101150004F5F242F30E08091640090916500281744
:10116000390790F3C29A8091850086958093850017
:1011700080918500882309F0BCCF12C1BA9AC29829
:101180008BEB97E00197F1F700C000009FB7F89450
:10119000C29AE0E2F1E03197F1F700C0BA9881E03D
:1011A000B29980E08093BC009FBF8BE996E00197E5
:1011B000F1F7BA9AC29AF4C08091C5008093850075
:1011C000BA9A88E02FB7F894C2989091850090FF62
:1011D0000BC091E29A95F1F7C29AE7E0F1E03197FE
:1011E000F1F700C0000009C0E7EFF0E03197F1F738
:1011F0000000C29AF7E3FA95F1F790918500969571
:10120000909385002FBF8150E9F6B9C11092BC00C0
:1012100028E08091BC0086958093BC00BA9A3FB7C5
:10122000F894C29881E28A95F1F7C29A97E39A9569
:10123000F1F7BA9886B390E0847090709595879591
:1012400095958795809385003FBFE2EEF0E031975A
:10125000F1F700C0000080918500882329F080917B
:10126000BC0080688093BC00215099F699C0BA9A5E
:101270002FB7F894C298F1E2FA95F1F7C29A87E392
:101280008A95F1F7BA9886B390E08470907095953E
:101290008795959587958093BC002FBF81C0BA9A9A
:1012A0008FB7F894C2989091C50090FF0BC091E25F
:1012B0009A95F1F7C29AE7E0F1E03197F1F700C0B3
:1012C000000009C0E7EFF0E03197F1F70000C29AA3
:1012D000F7E3FA95F1F78FBF52C1B99AB898BA9A65
:1012E000C29800938400FDB88091C5008111C59813
:1012F0001092850026C0F0E0E953FF4F80818FB93E
:10130000EEB8809184008DB940E005C025E02A95B3
:10131000F1F700C04F5F242F30E08091640090917E
:1013200065002817390790F3769BEBCF80918500F5
:10133000E82FF0E09FB1E454FF4F90838F5F8093DC
:101340008500E09185008091C600E817A0F28091A9
:10135000C5008111C59A80918500EDC08BDD0FC15C
:1013600080E090E0A2DD8091C50028DE80938500BA
:1013700015C0EC2FF0E0E953FF4F80811FDE809312
:101380008500CF5F01C0C0E08091C500C81788F319
:101390008091C6008111CEDD809185008093BC00D4
:1013A0001093C400ECC08091C500CC24882329F49C
:1013B0001CC081E011DE8883C3942C2D30E0809125
:1013C000C60090E00197E901C454DF4F28173907A0
:1013D00084F380E001DE88830CC0CC2DD0E081E076
:1013E000FBDDC454DF4F8883C3948091C600C816C8
:1013F000A0F38091C700882309F49BC09BDD99C0AE
:101400008091C6008BD9BBC04091C600B99A2CC050
:10141000415010927F0007C085E08A95F1F700C027
:101420005F5F50937F0050917F00252F30E08091C7
:101430006400909165002817390770F3C09A1092E4
:101440007F0007C095E09A95F1F700C05F5F509369
:101450007F0050917F00252F30E0809164009091B3
:1014600065002817390770F388B38C7F88BB442345
:1014700079F685C0EC2FF0E0EA53FF4F80818FD9D9
:10148000CF5F01C0C0E08091C500C81798F377C056
:10149000B998C19A88E090E071E010927F0007C08F
:1014A000F5E0FA95F1F700C0EF5FE0937F00E0917F
:1014B0007F004E2F50E0209164003091650042176C
:1014C000530770F3C09A10927F0007C025E02A9559
:1014D000F1F700C0EF5FE0937F00E0917F004E2FB7
:1014E00050E020916400309165004217530770F37B
:1014F00030918500B19B04C0372B3093850005C027
:10150000272F2095232320938500C098770F0197DC
:1015100021F6C198E62FF0E080918500E454FF4F5A
:1015200080836F5F01C060E08091C600681708F497
:10153000AFCF8091C6008093C40021C080E0EED878
:101540008091C6002CD98091C70029D98091C8000C
:1015500026D9109285000DC080E0E0D880E01FD928
:1015600080E01DD980E01BD9809185008F5F80933A
:1015700085008091C50090918500981768F31092BE
:10158000680080917900882309F49ACD80918300C6
:10159000882369F480917A008093800080917B0099
:1015A0008093810080917C008093820017C090918D
:1015B0008000981710F4C09801C0C09A80918300F1
:1015C00090918100981710F4C19801C0C19A909130
:1015D0008200981710F4C29801C0C29A80918300CB
:1015E0008F5F809383006CCDE199FECF9FBB8EBB54
:1015F000E09A99278DB30895262FE199FECF1CBA62
:101600009FBB8EBB2DBB0FB6F894E29AE19A0FBE3A
:0816100001960895F894FFCF44
:061618005AFF120A0A004D
:00000001FF
