:1000000043C05DC089C05BC05AC059C058C057C00A
:1000100056C055C054C053C052C051C050C002CB8E
:100020009AC8EBC809C932C962C979C996C9D6C983
:10003000D7C98FC8F4C922CA25CA89C886C8BBCA0D
:10004000DCCA04030904160355005300420074007F
:1000500069006E0079005300500049001201100140
:100060000000000881179F0C040100020001090232
:10007000190001010080640904000001FF00000074
:10008000070581030800640011241FBECFE5D2E0FC
:10009000DEBFCDBF10E0A0E6B0E0E2EBF6E102C0CB
:1000A00005900D92A636B107D9F711E0A6E6B0E0AB
:1000B00001C01D92AF38B107E1F7EDD7F8CAA0CF64
:1000C000A82FB92F80E090E041E050EA609530E041
:1000D00009C02D9182279795879510F08427952741
:1000E000305EC8F36F5FA8F30895EADF8D939D93A8
:1000F0000895A6E088279927AA9569F00197E1F36A
:10010000B399FCCFB39BFECF81E09927A6B30196AC
:1001100011F0A871D9F70895CF93CFB7CF93C395B6
:10012000B39BE9F7B39B0BC0B39B09C0B39B07C05C
:10013000B39B05C0B39B03C0B39B01C0D5C00F9256
:10014000DF93C0916101DD27C859DE4F012EB39BBB
:1001500003C0DF910F90E6CF2F930F931F934F9320
:100160002FEF4F6F06B303FB20F95F933F9350E0EF
:100170003BE065C016B30126502953FDC89556B320
:10018000012703FB25F92F7306B3B1F05027102781
:1001900013FB26F906B22230F0F000C016B3012797
:1001A00003FB27F90126502906B22430E8F54F77E2
:1001B000206816B30000F6CF50274F7D206206B2AC
:1001C000102F000000C006B300265029102713FB93
:1001D00026F906B2E2CF4F7B06B3206400C0DACF27
:1001E00001265029187106B269F14E7F2160012F56
:1001F00016B328C0002650294D7F06B22260102F6A
:1002000029C0012650294B7F06B22460012F2DC042
:1002100016B301265029477F2860000006B22EC081
:100220004F7E06B3206130C0422706B349930026B3
:100230005029102706B24FEF13FB20F9297F16B380
:1002400079F2187159F10126502906B2012703FBF2
:1002500021F9237F06B371F2002650293150D0F0E6
:1002600006B2102713FB22F9277E16B351F201269E
:100270005029012703FB06B223F92F7C49F2000025
:1002800006B3102713FB24F90026502906B22F7954
:1002900039F270CF10E21ABF002719C03B503195D8
:1002A000C31BD04010E21ABF0881033C09F10B3494
:1002B000F9F020915F011981110F1213EDCF4A81DE
:1002C000441F093651F10D3211F0013E29F7009318
:1002D00066013F915F914F911F910F912F91DF9197
:1002E0000F90CAB7C5FD1BCFCF91CFBFCF91189547
:1002F00020916601222369F310916401112379F59D
:1003000034307AF1309364012093600110916101DF
:100310003BE0311B3093610124C000916401013046
:10032000F4F40AE54F7049F43091600034FD1AC0CE
:1003300000936000C8E4D1E019C03091530134FD4E
:1003400011C000935301C4E5D1E010C0052710E0AF
:1003500000C021C0052710E0C89508BB14C03AE5CD
:1003600001C032ED032EC0E0D0E032E017B31861D7
:10037000C39A08B317BB58E120E84FEF20FF0527C9
:1003800008BB279517951C3F28F700004552B0F78A
:1003900020FF0527279508BB17951C3FB8F6299124
:1003A0003A9561F7077E10916501110F08BBC250A5
:1003B000D04011F010935F0110E21ABF086017B32C
:1003C000177E402F477E54E05A95F1F708BB17BBC4
:1003D00048BB7FCF1F93CF93DF936091640163503D
:1003E00067FDA7C080916101CCE0D0E0C81BD109B6
:1003F000C859DE4F809160018D3209F088C06830A5
:1004000009F095C083EC809348018AE580936000F1
:10041000109266008881807631F0CE016ED28F3FD7
:1004200009F464C06AC09A811092510189818823BD
:1004300031F41092520121E531E082E052C0853062
:1004400019F4909365014AC0863091F58B81813013
:1004500041F48CE590E0909363018093620182E126
:1004600023C0823041F48EE690E090936301809344
:10047000620189E119C08330B1F4992341F482E427
:1004800090E0909363018093620184E00DC091300D
:1004900051F0923041F486E490E0909363018093B0
:1004A000620186E101C080E090E49093660025C07F
:1004B000883069F0893019F4909367010FC08A3051
:1004C00049F08B3059F48BE48093540107C027E640
:1004D00031E002C021E531E081E003C021E531E0F7
:1004E00080E0309363012093620107C0988197FDFB
:1004F0008E8190E89093660007C09F81992321F434
:100500009E81981708F4892F8093610010C0809114
:10051000660087FF0CC0CE0185D18F3F21F48EE1AC
:100520008093600004C0882311F010926100109243
:1005300064018091600084FF5BC0809161008F3F07
:1005400009F456C0182F893008F018E0811B8093F9
:1005500061008091480198E8892780934801112320
:10056000B1F18091660087FF08C089E491E0612FB6
:1005700038D1182F8930B0F52AC02091620130910E
:100580006301412F415086FF0EC050E0EA01C65B77
:10059000DE4FF901A9E4B1E084918D933196AC1757
:1005A000BD07D1F70CC0D90150E0CA01865B9E4F50
:1005B000E9E4F1E06D916193E817F907D9F74F5F2E
:1005C0005F4F420F531F509363014093620189E4D0
:1005D00091E0612F8ADD1C5F1C3041F08FEF80932A
:1005E000610004C08FEF809361001EE110936000F2
:1005F00084E196B3987131F48150D9F71092650176
:1006000010925F0111E0811110E080916700811765
:1006100029F0112309F4BBD310936700DF91CF9128
:100620001F910895AC9A8BB780628BBF8BE4809347
:1006300054018AE5809353010895FC0150916400B0
:10064000862F972FDC0194E0619128E030E040E8AC
:1006500080E0742F762309F0C09A052E00C00000B8
:10066000000000000A94D1F7C29A052E00C00000D5
:10067000000000000A94D1F7880FB1998F5FC098ED
:10068000C29846952150304021F78D939150E1F664
:10069000089580913A0190913B019C012F5F3F4F5B
:1006A00030933B0120933A0120913C0127FF02C087
:1006B000880F991F2093400180FF03C0286020937A
:1006C0004001292F26952093410196958795809387
:1006D000420180E491E064E471E0AFDF0895B99AEB
:1006E00024E030E0E1E09E2F982321F098B39C7F36
:1006F000926002C098B39C7F98BBEE0F10923701B6
:1007000007C045E04A95F1F700C09F5F909337011D
:1007100090913701692F70E0409162005091630021
:100720006417750770F3C09A1092370107C045E04F
:100730004A95F1F700C09F5F909337019091370180
:10074000692F70E040916200509163006417750753
:1007500070F32150304039F688B38C7F88BB089500
:10076000B99A28E030E0E1E09E2F982321F098B379
:100770009C7F926002C098B39C7F98BBEE0F109252
:10078000370107C045E04A95F1F700C09F5F90939D
:10079000370190913701692F70E0409162005091CC
:1007A00063006417750770F3C09A1092370107C091
:1007B00045E04A95F1F700C09F5F90933701909113
:1007C0003701692F70E04091620050916300641717
:1007D000750770F32150304039F688B38C7F88BBA1
:1007E0000895EF92FF921F93DF93CF930F92CDB7AF
:1007F000DEB7182F862F612F792F7B0108C08983E0
:1008000048DF90914701F70191937F0189819E2DE7
:10081000911B9817A0F30F90CF91DF911F91FF903C
:10082000EF900895DF92EF92FF920F931F93CF9373
:10083000DF93F82EE62E0F2D192F50E6D52E32C05D
:10084000F80181918F018093430123DF8091400162
:100850008D2580934001C0E0D0E01DC080E491E090
:1008600064E471E0EADE80914701909143018917C9
:1008700041F490913801891721F09091390189173D
:1008800089F42091640030E045E0220F331F4A953F
:10089000E1F7C20FD31F20913D0130913E01C217F5
:1008A000D307E0F2802F8F198E1550F281E0DF918F
:1008B000CF911F910F91FF90EF90DF900895FC0171
:1008C00088B3942F9095982388B3842B12C02191DC
:1008D00038E088BB220F3A9500C008F098BB00C0F2
:1008E000000098BB21F000C000C000C0F2CF6150F2
:1008F00070406115710559F70895CF93DF93EC01AE
:100900004981442341F481E28983D0936301C093F8
:10091000620188E039C2413011F486B308C15A81BE
:10092000423011F458BB2FC20296752F777021E028
:1009300030E0072E02C0220F331F0A94E2F7622F25
:10094000433029F488B36095682368BB1CC24430E7
:1009500019F488B3822B8EC0453049F4509364005B
:10096000B99887B3856287BB88B3887D83C04630DA
:1009700049F4B898C098B998C198BA98C298BD98E7
:10098000C59801C2473041F4BE0157DED0936301E0
:10099000C093620184E0F8C1483031F450933801CB
:1009A0008B8180933901EFC18C819D8190933B01B4
:1009B00080933A01493011F480E211C04B3011F4B8
:1009C00080EA0DC08A819B8190933E0180933D0116
:1009D0004A3011F480E403C04C3029F480EC809359
:1009E0003C018FEFD1C14D3029F487B320952823E6
:1009F00027BBC9C14E3021F487B3822B87BBC3C14B
:100A00004F3009F5552329F480913F0187B9A59A04
:100A10000CC0513031F480913F01816087B9A29AB6
:100A200004C0523011F48FE887B9369A3699FECF58
:100A300084B1888385B18983D0936301C0936201B7
:100A400014BA82E0A1C1403159F4B89AB99A8AB572
:100A5000806A8ABD8AB583608ABD83B7856038C0E5
:100A6000413121F459BD8C8188BD8DC1423121F4C1
:100A700088B3822B88BB87C1433129F488B3209582
:100A8000282328BB80C1443151F486B390E08223EF
:100A9000932302C0959587957A95E2F748C0463131
:100AA00069F5552319F483B78B7F24C0513031F495
:100AB00083B78B7F83BF83B7826013C0523051F4FA
:100AC00083B78B7F83BF83B7826083BF83B7816027
:100AD00083BF59C1533049F483B7846083BF83B760
:100AE0008D7F83BF83B78E7FF3CF543009F04BC126
:100AF00083B7846083BF83B78D7FE7CF4F3149F4DD
:100B00009B8180E0850F911D90936300809362002C
:100B10003AC1403219F41ABC13BE35C1413221F436
:100B20005093870181E0E5C0423241F482E188833D
:100B3000D0936301C093620181E026C14332D9F4AE
:100B4000379A86B19A81892B86B98B81813049F099
:100B5000813020F0823009F016C107C010923F01A9
:100B600012C180913F01806803C080913F0180697C
:100B700080933F0108C1483249F48EE791E0909399
:100B800063018093620180918601FEC0493211F4B5
:100B900082E0AFC04A3211F483E00BC04B3211F453
:100BA00084E0A7C04C3211F488E0A3C04D3239F480
:100BB00089E0809368008A8180938701E4C04E3287
:100BC00059F48BE0809368008A81809387018B8140
:100BD000809388018C8134C04F3259F4513031F404
:100BE000B89AB99ABA9A50933601CDC0109236018C
:100BF000CAC0403349F450936E008B8180936F00DC
:100C00008C8180937000BFC0413329F450936900F8
:100C100010926A00B8C0423311F485E06AC04333D1
:100C200021F45093870186E064C0443361F450930B
:100C300068008B81809387018C81809388018D81EE
:100C400080938901A0C0453369F4509387018B815B
:100C5000809388018C81809389018D8180938A01A2
:100C600080E147C0463371F555FF1BC08091740089
:100C7000803CB8F4E82FF0E0EA58FF4F9B81908366
:100C80008F5FE82FF0E0EA58FF4F9C8190838F5FE1
:100C9000E82FF0E0EA58FF4F9D8190838F5F8093AB
:100CA00074008A8184FF6FC080917400882309F4E6
:100CB0006AC081E18093680087B3862B87BB60930D
:100CC000750061C0842F90E0807F9070803D910519
:100CD00099F44770409387018A81809388018B81C2
:100CE000809389018C8180938A018D8180938B010F
:100CF0008EE08093680047C0803E910501F58AE050
:100D000080936800842F8770809387014870409398
:100D100088011092370180E00BC090E00296FE013E
:100D2000E80FF91F308189579E4FFC013083822FD5
:100D300090918701282F2F5F891778F322C0803F79
:100D4000910509F587E080936800842F887080936F
:100D500087014770409388011092370180E00BC0F3
:100D600090E00296FE01E80FF91F308189579E4FEF
:100D7000FC013083822F90918801282F2F5F8917E3
:100D800078F38093370180E0DF91CF910895DF926F
:100D9000EF92FF920F931F93CF93DF93C8E0D0E0C1
:100DA000FF2460E8E62EDE2CDF0CD1BEA2D9082F8E
:100DB000192F89E0043318070CF4FD2CE6942197D1
:100DC00091F78F2D815081BFCF2DD0E0219610C09B
:100DD00090D98453994097FF03C0909581959F4F78
:100DE0008017910714F4F1B68C0181B78F5F81BF32
:100DF00081B790E0C817D9075CF7F1BE61B780E012
:100E000090E047D4DF91CF911F910F91FF90EF9029
:100E1000DF900895882311F0B89801C0B89ABA9865
:100E20001092370107C025E02A95F1F700C09F5FB7
:100E30009093370190913701492F50E0209169003C
:100E400030916A004217530770F3BA9A1092370133
:100E500007C025E02A95F1F700C09F5F9093370106
:100E600090913701492F50E02091690030916A003C
:100E70004217530770F38111B89A0895B898BA9839
:100E80001092370107C025E02A95F1F700C04F5FA7
:100E90004093370140913701242F30E08091690061
:100EA00090916A002817390770F386B3BA9A1092A6
:100EB000370107C025E02A95F1F700C09F5F9093A6
:100EC000370190913701492F50E02091690030910E
:100ED0006A004217530770F38170089588B38A7FC0
:100EE00088BBBA98B8981092370107C085E08A95F8
:100EF000F1F700C04F5F4093370140913701242F35
:100F000030E08091690090916A002817390770F3EA
:100F1000089587B38A7F87BB1092370107C085E0A9
:100F20008A95F1F700C04F5F409337014091370138
:100F3000242F30E08091690090916A0028173907CA
:100F400070F3B89A1092370107C085E08A95F1F7DF
:100F500000C04F5F4093370140913701242F30E0AC
:100F60008091690090916A002817390770F3BA9A46
:100F70001092370107C085E08A95F1F700C04F5FF6
:100F80004093370140913701242F30E08091690070
:100F900090916A002817390770F30895B89ABA9AA1
:100FA0001092370107C085E08A95F1F700C04F5FC6
:100FB0004093370140913701242F30E08091690040
:100FC00090916A002817390770F3BA981092370188
:100FD00007C085E08A95F1F700C04F5F4093370165
:100FE00040913701242F30E08091690090916A0090
:100FF0002817390770F3B8981092370107C085E0B9
:101000008A95F1F700C04F5F409337014091370157
:10101000242F30E08091690090916A0028173907E9
:1010200070F308950F931F93082F18E0802F807896
:10103000F1DE000F1150D1F721DF1F910F910895BC
:10104000FF920F931F93F82E08E010E0110F16DFA8
:10105000182B0150D9F7FF2011F080E001C081E08A
:10106000D9DE1092370107C095E09A95F1F700C0DC
:101070008F5F8093370180913701482F50E0209196
:10108000690030916A004217530770F3812F1F9156
:101090000F91FF900895DF92EF92FF920F931F93AD
:1010A000CF93DF9380E287BB88BB80E090E0E9D2FA
:1010B0008F3F09F081BFBB9A84E1E2EBF1EF3197FA
:1010C000F1F700C000008150C1F7BB9885E090E0C7
:1010D00090936A00809369001092630010926200FE
:1010E0002EE088E190E00FB6F894A89581BD0FBE80
:1010F00021BD10926B0010926C0010926D00109246
:101100006E0010926F001092700010927100109299
:10111000680088DA7894B898C098B998C198BA9855
:10112000C298BD98C598BBE1EB2EAAE1FA2E00E467
:1011300010E8A8954FD9E0916800F0E0E231F105A0
:1011400008F06EC2E15FFF4F099460E02AC2DD241F
:10115000D9C1DD2457C1B89AB998BA9AC29A1092E7
:101160007E018091870180937200109373003FC0CD
:10117000C09840E005C0F5E0FA95F1F700C04F5F78
:10118000242F30E080916200909163002817390786
:1011900090F38091730090917200892309F0C09AB6
:1011A000C29880917E01880F80937E0120917E01FC
:1011B00086B390E08270907095958795280F209364
:1011C0007E0140E005C025E02A95F1F700C04F5FA1
:1011D000242F30E080916200909163002817390736
:1011E00090F3C29A809173008695809373008091EA
:1011F0007300882309F0BCCF1DC0BA9AC2988BEB4C
:1012000097E00197F1F700C000009FB7F894C29AE9
:10121000E0E2F1E03197F1F700C0BA9881E0B299CD
:1012200080E080937E019FBF8BE996E00197F1F704
:10123000BA9AC29A81E0BCC1809187018093730001
:10124000BA9A88E02FB7F894C2989091730090FFF3
:101250000BC091E29A95F1F7C29AE7E0F1E031977D
:10126000F1F700C0000009C0E7EFF0E03197F1F7B7
:101270000000C29AF7E3FA95F1F790917300969502
:10128000909373002FBF8150E9F6CAC110927E017E
:1012900028E080917E01869580937E01BA9A3FB7BF
:1012A000F894C29881E28A95F1F7C29A97E39A95E9
:1012B000F1F7BA9886B390E0847090709595879511
:1012C00095958795809373003FBFE2EEF0E03197EC
:1012D000F1F700C0000080917300882329F080910D
:1012E0007E01806880937E01215099F6A3CFBA9A3F
:1012F0002FB7F894C298F1E2FA95F1F7C29A87E312
:101300008A95F1F7BA9886B390E0847090709595BD
:1013100087959595879580937E012FBF8BCFBA9A3D
:101320008FB7F894C2989091870190FF0BC091E21B
:101330009A95F1F7C29AE7E0F1E03197F1F700C032
:10134000000009C0E7EFF0E03197F1F70000C29A22
:10135000F7E3FA95F1F78FBF63C1B99AB898BA9AD3
:10136000C298E0927200FDB8809187018111C59802
:101370001092730026C0F0E0E757FE4F80818FB9CE
:101380000EB9809172008DB940E005C025E02A9524
:10139000F1F700C04F5F242F30E080916200909100
:1013A00063002817390790F3769BEBCF8091730089
:1013B000E82FF0E09FB1E258FE4F90838F5F80935B
:1013C0007300E091730080918801E817A0F280918A
:1013D00087018111C59AE093860122C17FDD20C17A
:1013E00080E090E096DD809187011CDE80937300A1
:1013F00013C0ED2DF0E0E757FE4F808113DE8093A0
:101400007300D39480918701D81698F38091880156
:101410008111C4DD8091730080937E010BCF809198
:101420008701882311F4DD241EC0DD2404C081E07F
:1014300007DE8883D3942D2D30E08091880190E0E1
:101440000197E901C258DE4F2817390784F380E07D
:10145000F7DD88830CC0CD2DD0E081E0F1DDC258EE
:10146000DE4F8883D39480918801D816A0F38091B1
:101470008901882309F49AC091DD98C08091880180
:101480002ED9CEC040918801B99A2FC088B38C7FE5
:1014900088BB41501092370107C085E08A95F1F76B
:1014A00000C05F5F5093370150913701252F30E026
:1014B00080916200909163002817390770F3C09AF9
:1014C0001092370107C095E09A95F1F700C05F5F71
:1014D0005093370150913701252F30E08091620001
:1014E000909163002817390770F3442379F688B385
:1014F0008C7F88BB95C0ED2DF0E0E857FE4F8081D2
:101500002FD9D39480918701D816A8F389C0B998B0
:10151000C19A88E090E071E01092370107C0F5E0D1
:10152000FA95F1F700C0EF5FE0933701E0913701E2
:101530004E2F50E020916200309163004217530714
:1015400070F3C09A1092370107C025E02A95F1F791
:1015500000C0EF5FE0933701E09137014E2F50E07C
:1015600020916200309163004217530770F330916D
:101570007300B19B04C0372B3093730005C0272F35
:101580002095232320937300C098770F019721F6AD
:10159000C198E62FF0E080917300E258FE4F8083FF
:1015A0006F5F80918801681708F4B1CF809188013E
:1015B0008093860135C080E092D880918801D0D890
:1015C00080918901CDD880918A01CAD81092730088
:1015D0000DC080E084D880E0C3D880E0C1D880E02E
:1015E000BFD8809173008F5F8093730080918701D3
:1015F00090917300981768F313C08CE190E1019704
:10160000F1F700C00000DFB6F8946091740086E73F
:1016100090E070E04091750052D910927400DFBEE6
:101620001092680080913601882309F482CD809160
:101630007100882369F490916E0090936B009091F3
:101640006F0090936C009091700090936D0015C0A6
:1016500090916B00981710F4C09801C0C09A9091B7
:101660006C00981710F4C19801C0C19A90916D0058
:10167000981710F4C29801C0C29A8F5F80937100CE
:1016800058CDE199FECF9FBB8EBBE09A99278DB3D1
:101690000895262FE199FECF1CBA9FBB8EBB2DBBB0
:1016A0000FB6F894E29AE19A0FBE01960895F89465
:0216B000FFCF6A
:0616B2005AFF0A000A00C5
:00000001FF
