:1000000031C04BC0C8C149C048C047C046C045C048
:1000100044C043C042C041C040C03FC03EC00403D2
:1000200009041603550053004200740069006E0075
:10003000790053005000490012011001000000082F
:1000400081179F0C0401000200010902190001013F
:100050000080640904000001FF000000070581031F
:1000600008000A0011241FBECFE5D2E0DEBFCDBFDD
:1000700010E0A0E6B0E0E4EFFDE002C005900D92D4
:10008000A436B107D9F710E0A4E6B0E001C01D9294
:10009000A13DB107E1F7BDD4ABC6B2CFAC9A8BB7E7
:1000A00080628BBF8BE4809393008AE580939200FB
:1000B00008951F93DC01162F8091920084FF07C0E2
:1000C0008091930098E889278093930003C08AE584
:1000D00080939200912FE4E9F0E08D91819391500B
:1000E0001916DCF384E990E0612F3ED11C5F109378
:1000F00092001F9108951F93CF93DF936091A30007
:10010000635067FDA5C08091A000CCE0D0E0C81B83
:10011000D109C955DF4F80919F008D3209F086C00B
:10012000683009F093C083EC809387008AE5809360
:100130006000109265008881807639F0CE01E6D4A7
:10014000282F8F3F09F461C067C09A8110929000F8
:100150008981882321F41092910022E04FC08530DC
:1001600019F49093A40049C0863099F58B818130B1
:1001700041F488E390E09093A2008093A10022E1F3
:1001800024C0823041F48AE490E09093A2008093EE
:10019000A10029E11AC08330B9F48A81882341F48F
:1001A0008EE190E09093A2008093A10024E00DC026
:1001B000813051F0823041F482E290E09093A200CD
:1001C0008093A10026E101C020E080E480936500D7
:1001D00023C0883021F421E086EA90E011C0893004
:1001E00019F49093A60009C08A3011F421E006C0EA
:1001F0008B3019F48BE48093930020E080E990E049
:100200009093A2008093A10007C0888187FD2E8172
:1002100080E88093650006C08F81882319F48E8161
:10022000821708F0822F8093610010C080916500D2
:1002300087FF0CC0CE0194D38F3F21F48EE18093D1
:10024000600004C0882311F0109261001092A30096
:100250008091600084FF58C0809161008F3F09F455
:1002600053C0182F893008F018E0811B809361007B
:100270008091870098E8892780938700112391F166
:100280008091650087FF08C088E890E0612F53D314
:10029000182F893098F526C02091A1003091A20036
:1002A00086FF0DC0A8E8B0E080E090E0F901E80F1B
:1002B000F91FE491ED9301961817C1F708C0D90111
:1002C000912FE8E8F0E08D9181939150E1F7115082
:1002D000812F90E01F5F0196820F931F9093A200E1
:1002E0008093A10088E890E0612F3ED0612F6C5F81
:1002F0006C3041F08FEF8093610004C08FEF8093EA
:1003000061006EE16093600094E186B3887131F41E
:100310009150D9F71092A40010929E0010E09923FA
:1003200009F411E080916400811729F0112309F488
:100330009FD310936400DF91CF911F910895A82F50
:10034000B92F80E090E041E050EA609530E009C0CC
:100350002D9182279795879510F084279527305EF9
:10036000C8F36F5FA8F30895EADF8D939D93089516
:10037000A6E088279927AA9569F00197E1F3B39938
:10038000FCCFB39BFECF81E09927A6B3019611F075
:10039000A871D9F70895CF93CFB7CF93C395B39BE7
:1003A000E9F7B39B0BC0B39B09C0B39B07C0B39BDA
:1003B00005C0B39B03C0B39B01C0D5C00F92DF93B0
:1003C000C091A000DD27C955DF4F012EB39B03C0AC
:1003D000DF910F90E6CF2F930F931F934F932FEF43
:1003E0004F6F06B303FB20F95F933F9350E03BE070
:1003F00065C016B30126502953FDC89556B3012791
:1004000003FB25F92F7306B3B1F05027102713FB18
:1004100026F906B22230F0F000C016B3012703FB24
:1004200027F90126502906B22430E8F54F772068D5
:1004300016B30000F6CF50274F7D206206B2102F72
:10044000000000C006B300265029102713FB26F930
:1004500006B2E2CF4F7B06B3206400C0DACF01269C
:100460005029187106B269F14E7F2160012F16B331
:1004700028C0002650294D7F06B22260102F29C0C7
:10048000012650294B7F06B22460012F2DC016B3E0
:1004900001265029477F2860000006B22EC04F7EFB
:1004A00006B3206130C0422706B349930026502985
:1004B000102706B24FEF13FB20F9297F16B379F20C
:1004C000187159F10126502906B2012703FB21F9C1
:1004D000237F06B371F2002650293150D0F006B2C6
:1004E000102713FB22F9277E16B351F2012650295B
:1004F000012703FB06B223F92F7C49F2000006B363
:10050000102713FB24F90026502906B22F7939F25F
:1005100070CF10E21ABF002719C03B503195C31BA2
:10052000D04010E21ABF0881033C09F10B34F9F006
:1005300020919E001981110F1213EDCF4A81441FA3
:10054000093651F10D3211F0013E29F70093A50053
:100550003F915F914F911F910F912F91DF910F90DC
:10056000CAB7C5FD1BCFCF91CFBFCF9118952091B2
:10057000A500222369F31091A300112379F53430EB
:100580007AF13093A30020939F001091A0003BE0EC
:10059000311B3093A00024C00091A3000130F4F47B
:1005A0000AE54F7049F43091600034FD1AC00093A1
:1005B0006000C7E8D0E019C03091920034FD11C04E
:1005C00000939200C3E9D0E010C0052710E000C0FE
:1005D00021C0052710E0C89508BB14C03AE501C04A
:1005E00032ED032EC0E0D0E032E017B31861C39AB9
:1005F00008B317BB58E120E84FEF20FF052708BBE1
:10060000279517951C3F28F700004552B0F720FFAB
:100610000527279508BB17951C3FB8F629913A95F1
:1006200061F7077E1091A400110F08BBC250D040A3
:1006300011F010939E0010E21ABF086017B3177EE6
:10064000402F477E54E05A95F1F708BB17BB48BBD3
:100650007FCF1092CF00880F8093BD000895E09166
:10066000CF00E03138F4EF5FE093CF00F0E0E354E7
:10067000FF4F808308958091CD008F5F8093CD00E0
:10068000EDEBF0E0E80FF11D808108958091CE0040
:100690009091CD00891B08951092CD006093CE00FB
:1006A000880F81608093BD006F5F8DEB90E0DFD09D
:1006B000882311F080E0089522D008956091CF0042
:1006C0006F5F8DEB90E0D3D01092CF00882311F0B4
:1006D00080E0089514D0089507D01092CF001092B2
:1006E000CD001092CE000895C09AC29ABA9AB89AD4
:1006F0008FEF8FB98AE28DB980EF8EB9089580911E
:10070000D00008958EB941E451E06BE224E131E07C
:10071000CA010197F1F76DB9B29BFECFC9010197EC
:10072000F1F76DB9769BF4CF81E491E00197F1F791
:100730008FB19FEF9FB9B89A0895C29AC29BFECF1E
:1007400081E491E00197F1F7C09884E191E001978D
:10075000F1F7C298C09A779B02C081E0089583E0C8
:100760008093D00080E00895C098C29AB29BFECFDB
:1007700084E191E00197F1F7C09A81E491E001975B
:10078000F1F7759B02C081E0089584E08093D0006A
:1007900080E00895CF92DF92EF92FF920F931F9324
:1007A000CF93DF938C01E62E9091D000892F81604A
:1007B0008093D000F801808180FD03C09360909306
:1007C000D000BBDF882309F449C0E801FE2CCC240B
:1007D000CA94DD24D3948091D000837061F1C298D3
:1007E00088818FB980EF8EDFB8988EEF8BDF909184
:1007F000D00080FF09C090FF02C081E001C082E00C
:100800008093D00080E02AC0892F8570843071F4F5
:10081000F801808181608083D092D0008EDF8823B0
:1008200019F0E801FE2C14C08AE0EACF21969E7FE1
:100830009093D0000DC0B89880EF64DF8883F1E01A
:10084000FF1611F4CFB801C01FB821968EEF5ADF02
:10085000FA9409F0C0CF88DF811181E0DF91CF9158
:100860001F910F91FF90EF90DF90CF90089510921D
:10087000D00090DF0895FC0180818E7F808384E02A
:100880008093D000CF0186DF0895DC01FB016091E9
:10089000620050E07D9190E040E820E030E0842F5D
:1008A000872309F0C09A062E00C000000000000057
:1008B0000A94D1F7C29A062E00C000000000000082
:1008C0000A94D1F7990FB1999F5FC098C298469545
:1008D0002F5F3F4F2830310511F790835F5F543011
:1008E00011F03196D7CF089520916A0030916B00B6
:1008F0002F5F3F4F30936B0020936A0021503040B0
:1009000080916E0087FF02C0220F331F80936F001B
:1009100020FF03C0886080936F00832F86958093AB
:10092000700036952795209371008FE690E063E77D
:1009300070E0ABDF08950F931F93CF93DF93062FE3
:10094000EC0110E005C0D0DF8091760089931F5F35
:100950001017C8F3802FDF91CF911F910F91089549
:100960007F928F929F92AF92BF92CF92DF92EF923F
:10097000FF920F931F93CF93DF93862EA0906C006E
:10098000B0906D0090906800C09069002091620066
:10099000E22EFF2435E0EE0CFF1C3A95E1F78C01C6
:1009A000DD2420E6722E24C0F8018081809372003D
:1009B0009BDF80916F00872580936F00C0E0D0E0BF
:1009C00011C08FE690E063E770E05FDF9091760002
:1009D00080917200981721F4991511F09C1529F453
:1009E000CE0DDF1DCA15DB0560F3D3940F5F1F4FDB
:1009F000D814D0F281E0DF91CF911F910F91FF9039
:100A0000EF90DF90CF90BF90AF909F908F907F90AE
:100A1000089580E287BB88BB80E090E0D3D18F3F10
:100A200009F081BFBB9A20E043EB51EFCA01019767
:100A3000F1F72F5F2431D1F7BB982EE088E190E0E9
:100A40000FB6F894A89581BD0FBE21BD27DB789421
:100A5000389A87B187B986B1876086B9379A369A4E
:100A600085B7806485BF3699FECFA89544DBFDCF5E
:100A7000DF92EF92FF920F931F93CF93DF9300E0EB
:100A800040E8D42EEE24FF241D2D100F11BF70DC82
:100A9000EC0189E0C433D8070CF0102FD6940894E9
:100AA000E11CF11C88E0E816F10411F0012FECCFF5
:100AB000115011BF1F5FE12EFF240894E11CF11CAF
:100AC00013C056DC9C012453394037FF03C03095D6
:100AD00021953F4F2C173D0714F09E0101C011B71F
:100AE00081B78F5F81BFE90181B790E0E816F90611
:100AF00044F711BF61B780E090E06CD1DF91CF91F6
:100B00001F910F91FF90EF90DF900895CF93DF93A7
:100B1000EC013981332341F481E28983D093A2002F
:100B2000C093A10088E04BC1313011F486B3C6C038
:100B3000323011F48A8123C002966A81762F777051
:100B400041E050E0072E02C0440F551F0A94E2F71F
:100B5000242F333021F488B32095282304C0343067
:100B600021F488B3282B28BB29C1353051F4609378
:100B70006200B99887B3856287BB88B3887D88BBDC
:100B80001DC1363019F480E287BBF9CF373041F40C
:100B9000BE017BDED093A200C093A10084E00FC110
:100BA000383031F4609368008B818093690006C10E
:100BB0008C819D8190936B0080936A00393011F491
:100BC00080E211C03B3011F480EA0DC08A819B8124
:100BD00090936D0080936C003A3011F480E403C070
:100BE0003C3029F480EC80936E008FEFE8C03D30FC
:100BF00029F497B3842F8095892304C03E3021F4D3
:100C000087B3842B87BBDAC03F30E9F497B3662300
:100C100019F417B8BD9809C0613019F467B9BA98CA
:100C200004C0623011F48FE887B9369A3699FECF46
:100C300084B1888385B18983D093A200C093A10039
:100C400097BB82E0BCC0303159F4B89AB99A8AB5E2
:100C5000806A8ABD8AB583608ABD83B785604EC0CD
:100C6000313121F469BD8C8188BDA8C0323119F4BD
:100C700088B3842B84CF333129F498B3842F8095A3
:100C800089237DCF343151F486B390E084239523BA
:100C900002C0959587957A95E2F710C03531A9F491
:100CA0006FB980E48EB9F8942BE197E32DB9892FC1
:100CB0008A95F1F7769BFACF78948FB18883D09399
:100CC000A200C093A10081E07AC0363169F56623A5
:100CD00019F483B78B7F24C0613031F483B78B7FE5
:100CE00083BF83B7826013C0623051F483B78B7FB8
:100CF00083BF83B7826083BF83B7816083BF5EC0D9
:100D0000633049F483B7846083BF83B78D7F83BF2B
:100D100083B78E7FF3CF643009F050C083B784600F
:100D200083BF83B78D7FE7CF373131F4B99AB89855
:100D3000BA9A8AE18DB942C0383111F4CDDC3EC097
:100D4000393119F4862F85DC39C03A3119F4862FF0
:100D500086DC34C03B3121F4F894B0DC78942EC0AA
:100D60003C3169F480916600803140F5E82FF0E075
:100D7000E958FF4F60838F5F809366001FC03D314D
:100D8000E9F42091660090E050E44BE137E310C0B5
:100D9000E92FF0E0E958FF4F80818FB95EB9F894F0
:100DA0004DB9832F8A95F1F7769BFACF78949F5FA0
:100DB000921770F3909367001092660080E0DF91C5
:100DC000CF910895E199FECF9FBB8EBBE09A992702
:100DD0008DB30895262FE199FECF1CBA9FBB8EBB21
:100DE0002DBB0FB6F894E29AE19A0FBE01960895D2
:040DF000F894FFCFA5
:040DF4005AFF28007A
:00000001FF
