:1000000042C05CC0D9C15AC059C058C057C056C0C0
:1000100055C054C053C052C051C050C04FC020CA78
:1000200002C847C860C883C8B1C8C8C8E0C81DC9ED
:100030001EC9F5C73CC973C976C9E5C7E6C7EEC98D
:1000400004030904160355005300420074006900BC
:100050006E007900530050004900120110010000A9
:10006000000881179F0C0401000200010902190019
:1000700001010080640904000001FF000000070581
:1000800081030800640011241FBECFE5D2E0DEBF6B
:10009000CDBF10E0A0E6B0E0EEE8F5E102C00590CB
:1000A0000D92A636B107D9F710E0A6E6B0E001C080
:1000B0001D92AD3CB107E1F730D767CAA1CFAC9A2A
:1000C0008BB780628BBF8BE4809392008AE580932C
:1000D000910008951F93DC01162F8091910084FFF9
:1000E00007C08091920098E889278093920003C00E
:1000F0008AE580939100912FE3E9F0E08D9181935F
:1001000091501916DCF383E990E0612F3ED11C5F1A
:10011000109391001F9108951F93CF93DF936091E7
:10012000A200635067FDA5C080919F00CCE0D0E0A5
:10013000C81BD109CA55DF4F80919E008D3209F04E
:1001400086C0683009F093C083EC809386008AE50E
:1001500080936000109267008881807639F0CE012C
:10016000BFD3282F8F3F09F461C067C09A811092D6
:100170008F008981882321F41092900022E04FC0E3
:10018000853019F49093A30049C0863099F58B818E
:10019000813041F48AE590E09093A1008093A00023
:1001A00022E124C0823041F48CE690E09093A100DB
:1001B0008093A00029E11AC08330B9F48A81882392
:1001C00041F480E490E09093A1008093A00024E0AB
:1001D0000DC0813051F0823041F484E490E090937E
:1001E000A1008093A00026E101C020E080E480937C
:1001F000670023C0883021F421E085EA90E011C037
:10020000893019F49093A50009C08A3011F421E0D7
:1002100006C08B3019F48BE48093920020E08FE8C5
:1002200090E09093A1008093A00007C0888187FD93
:100230002E8180E88093670006C08F81882319F49F
:100240008E81821708F0822F8093610010C0809108
:10025000670087FF0CC0CE01EAD28F3F21F48EE108
:100260008093600004C0882311F010926100109206
:10027000A2008091600084FF58C0809161008F3F90
:1002800009F453C0182F893008F018E0811B8093BF
:1002900061008091860098E8892780938600112369
:1002A00091F18091670087FF08C087E890E0612F97
:1002B000A9D2182F893098F526C02091A00030913E
:1002C000A10086FF0DC0A7E8B0E080E090E0F90152
:1002D000E80FF91FE491ED9301961817C1F708C0D4
:1002E000D901912FE7E8F0E08D9181939150E1F7EA
:1002F0001150812F90E01F5F0196820F931F909302
:10030000A1008093A00087E890E0612F3ED0612F8C
:100310006C5F6C3041F08FEF8093610004C08FEF11
:10032000809361006EE16093600094E186B3887110
:1003300031F49150D9F71092A30010929D0010E073
:10034000992309F411E080916600811729F01123A7
:1003500009F4B7D810936600DF91CF911F910895EB
:10036000A82FB92F80E090E041E050EA609530E09E
:1003700009C02D9182279795879510F0842795279E
:10038000305EC8F36F5FA8F30895EADF8D939D9305
:100390000895A6E088279927AA9569F00197E1F3C7
:1003A000B399FCCFB39BFECF81E09927A6B301960A
:1003B00011F0A871D9F70895CF93CFB7CF93C39514
:1003C000B39BE9F7B39B0BC0B39B09C0B39B07C0BA
:1003D000B39B05C0B39B03C0B39B01C0D5C00F92B4
:1003E000DF93C0919F00DD27CA55DF4F012EB39BDD
:1003F00003C0DF910F90E6CF2F930F931F934F937E
:100400002FEF4F6F06B303FB20F95F933F9350E04C
:100410003BE065C016B30126502953FDC89556B37D
:10042000012703FB25F92F7306B3B1F050271027DE
:1004300013FB26F906B22230F0F000C016B30127F4
:1004400003FB27F90126502906B22430E8F54F773F
:10045000206816B30000F6CF50274F7D206206B209
:10046000102F000000C006B300265029102713FBF0
:1004700026F906B2E2CF4F7B06B3206400C0DACF84
:1004800001265029187106B269F14E7F2160012FB3
:1004900016B328C0002650294D7F06B22260102FC7
:1004A00029C0012650294B7F06B22460012F2DC0A0
:1004B00016B301265029477F2860000006B22EC0DF
:1004C0004F7E06B3206130C0422706B34993002611
:1004D0005029102706B24FEF13FB20F9297F16B3DE
:1004E00079F2187159F10126502906B2012703FB50
:1004F00021F9237F06B371F2002650293150D0F044
:1005000006B2102713FB22F9277E16B351F20126FB
:100510005029012703FB06B223F92F7C49F2000082
:1005200006B3102713FB24F90026502906B22F79B1
:1005300039F270CF10E21ABF002719C03B50319535
:10054000C31BD04010E21ABF0881033C09F10B34F1
:10055000F9F020919D001981110F1213EDCF4A81FE
:10056000441F093651F10D3211F0013E29F7009375
:10057000A4003F915F914F911F910F912F91DF91B7
:100580000F90CAB7C5FD1BCFCF91CFBFCF911895A4
:100590002091A400222369F31091A200112379F580
:1005A00034307AF13093A20020939E0010919F0086
:1005B0003BE0311B30939F0024C00091A20001302A
:1005C000F4F40AE54F7049F43091600034FD1AC02C
:1005D00000936000C6E8D0E019C03091910034FD6E
:1005E00011C000939100C2E9D0E010C0052710E0CF
:1005F00000C021C0052710E0C89508BB14C03AE52B
:1006000001C032ED032EC0E0D0E032E017B3186134
:10061000C39A08B317BB58E120E84FEF20FF052726
:1006200008BB279517951C3F28F700004552B0F7E7
:1006300020FF0527279508BB17951C3FB8F6299181
:100640003A9561F7077E1091A300110F08BBC250C5
:10065000D04011F010939D0010E21ABF086017B34C
:10066000177E402F477E54E05A95F1F708BB17BB21
:1006700048BB7FCF782FB99AE0916300F091640076
:1006800061E040E050E0A5E0862F872321F088B3A9
:100690008C7F826002C088B38C7F88BB660F20E0AD
:1006A00003C08A2F8A95F1F7822F90E02F5F8E1773
:1006B0009F07B8F3C09A20E004C08A2F8A95F1F70B
:1006C000232F322F3F5F822F90E08E179F07A8F3D2
:1006D0004F5F5F4F44305105B9F620937D0088B3DA
:1006E0008C7F88BB0895782FB99AE0916300F091D0
:1006F000640061E040E050E0A5E0862F872321F010
:1007000088B38C7F826002C088B38C7F88BB660F01
:1007100020E003C08A2F8A95F1F7822F90E02F5FA7
:100720008E179F07B8F3C09A20E004C08A2F8A95DD
:10073000F1F7232F322F3F5F822F90E08E179F0714
:10074000A8F34F5F5F4F48305105B9F620937D0005
:1007500088B38C7F88BB0895DC01FB016091650044
:1007600050E07D9190E040E820E030E0842F872346
:1007700009F0C09A062E00C00000000000000A9494
:10078000D1F7C29A062E00C00000000000000A94B3
:10079000D1F7990FB1999F5FC098C29846952F5F86
:1007A0003F4F2830310511F790835F5F543011F0CF
:1007B0003196D7CF089520917000309171002F5F4E
:1007C0003F4F309371002093700021503040809152
:1007D000740087FF02C0220F331F8093750020FF33
:1007E00003C0886080937500832F86958093760080
:1007F000369527952093770085E790E069E770E0CC
:10080000ABDF08950F931F93CF93DF93062FEC0177
:1008100010E005C0D0DF80917C0089931F5F101726
:10082000C8F3802FDF91CF911F910F9108957F9290
:100830008F929F92AF92BF92CF92DF92EF92FF92F0
:100840000F931F93CF93DF93862EA0907200B090EA
:10085000730090906E00C0906F0020916500E22EB2
:10086000FF2435E0EE0CFF1C3A95E1F78C01DD2406
:1008700020E6722E24C0F8018081809378009BDFEF
:1008800080917500872580937500C0E0D0E011C08D
:1008900085E790E069E770E05FDF90917C008091F0
:1008A0007800981721F4991511F09C1529F4CE0DB4
:1008B000DF1DCA15DB0560F3D3940F5F1F4FD814FB
:1008C000D0F281E0DF91CF911F910F91FF90EF90D7
:1008D000DF90CF90BF90AF909F908F907F900895C2
:1008E000CF93DF93EC012981222341F481E28983B4
:1008F000D093A100C093A00088E002C2213011F47F
:1009000086B308C1223011F48A8123C002966A811D
:10091000762F777041E050E0072E02C0440F551F3C
:100920000A94E2F7342F233021F488B3309538232A
:1009300004C0243021F488B3382B38BBE0C1253003
:1009400051F460936500B99887B3856287BB88B31B
:10095000887D88BBD4C1263049F4B898C098B9982E
:10096000C098BA98C09880E287BBF3CF273041F493
:10097000BE01F2DED093A100C093A00084E0C0C10C
:10098000283031F460936E008B8180936F00B7C183
:100990008C819D819093710080937000293011F4B7
:1009A00080E211C02B3011F480EA0DC08A819B8156
:1009B00090937300809372002A3011F480E403C096
:1009C0002C3029F480EC809374008FEF99C12D3086
:1009D00029F497B3842F8095892304C02E3021F405
:1009E00087B3842B87BB8BC12F3009F5662329F48D
:1009F00080916D0087B9A59A0CC0613031F4809167
:100A00006D00816087B9A29A04C0623011F48FE84A
:100A100087B9369A3699FECF84B1888385B18983A8
:100A2000D093A100C093A00014BA82E069C1203124
:100A300059F4B89AB99A8AB5806A8ABD8AB5836032
:100A40008ABD83B785602AC0213121F469BD8C81BC
:100A500088BD55C1223119F488B3842B7ACF233154
:100A600029F498B3842F8095892373CF243151F4CE
:100A700086B390E08423952302C0959587957A9557
:100A8000E2F748C0263169F5662351F483B78B7FBE
:100A900083BF83B78D7F83BF83B7816083BF2FC13F
:100AA000613031F483B78B7F83BF83B782600FC01F
:100AB000623031F483B78B7F83BF83B78260EBCF23
:100AC000633049F483B7846083BF83B78D7F83BF6E
:100AD00083B78E7FE3CF643009F011C183B78460A0
:100AE000D7CF2F3149F49B8180E0860F911D9093E1
:100AF00064008093630003C1203219F41ABC13BE52
:100B0000FEC0213221F46093C50081E0B4C02232DE
:100B100041F481E18883D093A100C093A00081E0DB
:100B2000EFC02332D1F4379A86B1682B66B96B8156
:100B3000613049F0613020F0623009F0E0C007C058
:100B400010926D00DCC080916D00806803C08091C0
:100B50006D00806980936D00D2C0283249F48CEB1F
:100B600090E09093A1008093A0008091C400C8C041
:100B7000293211F482E07FC02A3211F483E00BC0E5
:100B80002B3211F484E077C02C3211F488E073C06A
:100B90002D3239F489E0809368008A818093C50002
:100BA000AEC02E3259F48BE0809368008A81809326
:100BB000C5008B818093C6008C8134C02F3259F4DC
:100BC000613031F4B89AB99ABA9A60936C0097C0C0
:100BD00010926C0094C0203349F4609383008B81A1
:100BE000809384008C818093850089C0213329F40F
:100BF0006093690010926A0082C0223311F485E08C
:100C00003AC0233321F46093C50086E034C0243316
:100C100061F4609368008B818093C5008C81809320
:100C2000C6008D818093C7006AC0253369F4609344
:100C3000C5008B818093C6008C818093C7008D8115
:100C40008093C80080E117C0822F90E0807F907071
:100C5000803D910599F427702093C5008A81809387
:100C6000C6008B818093C7008C818093C8008D81E2
:100C70008093C9008EE08093680041C0803E91055A
:100C8000E9F48AE080936800822F87708093C50022
:100C900028702093C600E0E00AC0F0E0DE01AE0F4D
:100CA000BF1F12968C91E953FF4F8083E92F8091EB
:100CB000C5009E2F9F5FE81780F31FC0803F9105FE
:100CC000F1F487E080936800822F88708093C500DC
:100CD00027702093C600E0E00AC0F0E0DE01AE0F0E
:100CE000BF1F12968C91E953FF4F8083E92F8091AB
:100CF000C6009E2F9F5FE81780F3E0937D0080E0A1
:100D0000DF91CF910895782F882311F0B99801C011
:100D1000B99ABA984091690050916A0020E035E094
:100D200003C0832F8A95F1F7822F90E02F5F8417FD
:100D30009507B8F3BA9A20E065E004C0862F8A953B
:100D4000F1F7232F322F3F5F822F90E08417950712
:100D5000A8F320937D007111B99A0895B998BA98B3
:100D60006091690070916A0020E035E003C0832F34
:100D70008A95F1F7822F90E02F5F86179707B8F3D7
:100D800036B3BA9A20E055E004C0852F8A95F1F772
:100D9000242F422F4F5F822F90E086179707A8F3EA
:100DA00020937D003695832F8170089588B3897FC5
:100DB00088BBBA98B9984091690050916A0020E0C8
:100DC00065E004C0862F8A95F1F7232F322F3F5F0D
:100DD000822F90E084179507A8F320937D00089553
:100DE00087B3897F87BB4091690050916A0020E0FA
:100DF00035E003C0832F8A95F1F7822F90E02F5FB3
:100E000084179507B8F3B99A20E035E003C0832F23
:100E10008A95F1F7822F90E02F5F84179507B8F33A
:100E2000BA9A20E065E004C0862F8A95F1F7232F57
:100E3000322F3F5F822F90E084179507A8F320930D
:100E40007D000895B99ABA9A4091690050916A005C
:100E500020E035E003C0832F8A95F1F7822F90E0E0
:100E60002F5F84179507B8F3BA9820E035E003C0E8
:100E7000832F8A95F1F7822F90E02F5F84179507D3
:100E8000B8F3B99820E065E004C0862F8A95F1F7A1
:100E9000232F322F3F5F822F90E084179507A8F30E
:100EA00020937D0008950F931F93082F10E0802F4B
:100EB000807829DF000F1F5F1830C9F74FDF1F91BF
:100EC0000F910895FF920F931F93F82E00E010E00A
:100ED000000F44DF082B1F5F1830D1F7FF2011F0FF
:100EE00080E001C081E00FDF4091690050916A000D
:100EF00020E065E004C0862F8A95F1F7232F322F7A
:100F00003F5F822F90E084179507A8F320937D0020
:100F1000802F1F910F91FF9008952F923F924F9233
:100F20005F926F927F928F929F92AF92BF92CF9279
:100F3000DF92EF92FF920F931F93DF93CF9300D036
:100F40000F92CDB7DEB780E287BB88BB80E090E030
:100F500006D38F3F09F081BFBB9A20E043EB51EFEE
:100F6000CA010197F1F72F5F2431D1F7BB9885E0D3
:100F700090E090936A008093690010926400109250
:100F800063002EE088E190E00FB6F894A89581BD4B
:100F90000FBE21BD1092800010928100109282003D
:100FA00010928300109284001092850010926B00C2
:100FB0001092680084D8789425E0F22E9BE1C92E27
:100FC00087EF882E912C07E3E02E11E2D12EB8E0B6
:100FD000AB2EB1E0BB2EA2EE6A2E712CFCEB4F2E95
:100FE000F7E05F2EE0E22E2EE1E03E2EA89594D8A9
:100FF00080916800E82FF0E0E131F10508F02EC2A1
:10100000E15FFF4F099400E0C4C1009163001091BB
:10101000640020917D0060917F00A0E0F2C11091FA
:101020007F0000E037C1B89AB998BA9AC29A109274
:10103000BC006091C50060937E0080E880937F00D3
:10104000409163005091640030E82EC0C09820E0C9
:1010500004C08F2D8A95F1F72F5F822F90E08417BF
:101060009507B8F3832F862309F0C09AC298809120
:10107000BC00880F8093BC002091BC0086B390E038
:101080008270907095958795280F2093BC0020E082
:1010900004C08F2D8A95F1F72F5F822F90E084177F
:1010A0009507B8F3C29A3695332381F610927F00E4
:1010B00018C0BA9AC298C2010197F1F72FB7F894F5
:1010C000C29AC1010197F1F7BA9880E0B29B81E022
:1010D0008093BC002FBF8BE996E00197F1F7BA9A95
:1010E000C29A81E098C18091C50080937F00BA9A2E
:1010F00030E04FB7F894C29820917F0020FF08C0DD
:101100008D2D8A95F1F7C29AC5010197F1F707C0B5
:10111000C4010197F1F7C29A8E2D8A95F1F72695B1
:1011200020937F004FBF3F5F383019F797C110926F
:10113000BC0030E08091BC0086958093BC00BA9AD8
:101140002FB7F894C2988D2D8A95F1F7C29A8E2DFB
:101150008A95F1F7BA9886B390E08470907095956F
:1011600087959595879580937F002FBFC301019741
:10117000F1F780917F00882329F08091BC0080687E
:101180008093BC003F5F3830A9F6ABCFBA9A8FB7D7
:10119000F894C2989D2D9A95F1F7C29A9E2D9A9532
:1011A000F1F7BA9826B330E0247030703595279562
:1011B000359527952093BC008FBF93CFBA9A2FB750
:1011C000F894C2988091C50080FF08C08D2D8A9543
:1011D000F1F7C29AC5010197F1F707C0C401019761
:1011E000F1F7C29A8E2D8A95F1F72FBF37C1B99AC0
:1011F000B898BA9AC2984BE140937E005AE15DB923
:101200008091C5008111C59810927F0040916300C4
:101210005091640030E01CC0A32FB0E0FD01E95301
:10122000FF4F80818FB980E48EB9CDB820E004C033
:101230008F2D8A95F1F72F5F822F90E08417950705
:10124000B8F3769BF2CF8FB1A454BF4F8C933F5F1E
:101250008091C600381700F330937F008091C5005D
:101260008111C59A3093C400F9C0A0DDF7C080E0B9
:1012700090E0B6DD8091C50016DE80937F008093FC
:10128000BC002FCFE02FF0E0E953FF4F80810BDE51
:10129000182F0F5F8091C5000817A0F310937F00EF
:1012A0008091C6008111CEDD1093BC001ACF8091D1
:1012B000C500882311F490E027C010E006C081E04B
:1012C00001DEEA81FB8180831F5F212F30E0809166
:1012D000C60090E00197A90144545F4F5B834A83A5
:1012E0002817390764F380E0EDDDEA81FB81808314
:1012F0000FC0092F10E081E09983E4DD04541F4FF3
:10130000F801808399819F5F8091C600981788F3C8
:101310008091C700882309F47CC094DD7AC0809155
:10132000C600A8D99BC04091C600B99A60916300DD
:101330007091640020917D001DC088B38C7F88BBB4
:1013400020E003C08F2D8A95F1F7822F90E02F5F68
:1013500086179707B8F3C09A20E004C08F2D8A95AE
:10136000F1F7232F322F3F5F822F90E086179707E8
:10137000A8F34150442309F720937D0088B38C7F64
:1013800088BB6CC0E02FF0E0EA53FF4F8081ABD9FF
:101390000F5F8091C5000817A8F360C0B998C19A83
:1013A00031E040E050E020E003C08F2D8A95F1F756
:1013B000822F90E02F5F80179107B8F3C09A20E04A
:1013C00004C08F2D8A95F1F7272F722F7F5F822F10
:1013D00090E080179107A8F3B19B02C0632B03C074
:1013E000832F80956823C098330F4F5F5F4F48303D
:1013F0005105C9F6C198EA2FF0E0E454FF4F60832D
:10140000AF5F8091C600A81748F220937D006093DB
:101410007F008091C6008093C40020C080E02AD95C
:101420008091C60060D98091C7005DD98091C800C5
:101430005AD910927F0090E009C080E01BD980E06B
:1014400052D980E050D980E04ED9912F8091C500CB
:10145000192F1F5F981788F390937F0010926800F0
:1014600080916C00882309F4C1CD90916B00992381
:1014700069F4809183008093800080918400809340
:101480008100809185008093820015C0809180004A
:10149000891710F4C09801C0C09A80918100891703
:1014A00010F4C19801C0C19A80918200891710F48C
:1014B000C29801C0C29A80916B008F5F80936B00CD
:1014C00095CDDF92EF92FF920F931F93CF93DF930F
:1014D00000E030E8D32EEE24FF241D2D100F11BFA5
:1014E00058D7EC0189E0C433D8070CF0102FD694FC
:1014F0000894E11CF11C88E0E816F10411F0012FBA
:10150000ECCF115011BF1F5FE12EFF240894E11CA6
:10151000F11C13C03ED79C012453394037FF03C050
:10152000309521953F4F2C173D0714F09E0101C0C7
:1015300011B781B78F5F81BFE90181B790E0E816ED
:10154000F90644F711BF61B780E090E010D0DF9159
:10155000CF911F910F91FF90EF90DF900895E19947
:10156000FECF9FBB8EBBE09A99278DB30895262F9F
:10157000E199FECF1CBA9FBB8EBB2DBB0FB6F89472
:0E158000E29AE19A0FBE01960895F894FFCF0B
:06158E005AFF110A0028BB
:00000001FF
