:1000000031C04BC0C8C149C048C047C046C045C048
:1000100044C043C042C041C040C03FC03EC00403D2
:1000200009041603550053004200740069006E0075
:10003000790053005000490012011001000000082F
:1000400081179F0C0401000200010902190001013F
:100050000080640904000001FF000000070581031F
:1000600008000A0011241FBECFE5D2E0DEBFCDBFDD
:1000700010E0A0E6B0E0ECEBFFE002C005900D92CE
:10008000A636B107D9F710E0A6E6B0E001C01D9290
:10009000A53DB107E1F7BDD48FC7B2CFAC9A8BB7FE
:1000A00080628BBF8BE4809397008AE580939600F3
:1000B00008951F93DC01162F8091960084FF07C0DE
:1000C0008091970098E889278093970003C08AE57C
:1000D00080939600912FE8E9F0E08D918193915003
:1000E0001916DCF388E990E0612F3ED11C5F109374
:1000F00096001F9108951F93CF93DF936091A700FF
:10010000635067FDA5C08091A400CCE0D0E0C81B7F
:10011000D109C555DF4F8091A3008D3209F086C00B
:10012000683009F093C083EC80938B008AE580935C
:100130006000109267008881807639F0CE01E6D4A5
:10014000282F8F3F09F461C067C09A8110929400F4
:100150008981882321F41092950022E04FC08530D8
:1001600019F49093A80049C0863099F58B818130AD
:1001700041F488E390E09093A6008093A50022E1EB
:1001800024C0823041F48AE490E09093A6008093EA
:10019000A50029E11AC08330B9F48A81882341F48B
:1001A0008EE190E09093A6008093A50024E00DC01E
:1001B000813051F0823041F482E290E09093A600C9
:1001C0008093A50026E101C020E080E480936700D1
:1001D00023C0883021F421E08AEA90E011C0893000
:1001E00019F49093AA0009C08A3011F421E006C0E6
:1001F0008B3019F48BE48093970020E084E990E041
:100200009093A6008093A50007C0888187FD2E816A
:1002100080E88093670006C08F81882319F48E815F
:10022000821708F0822F8093610010C080916700D0
:1002300087FF0CC0CE0194D38F3F21F48EE18093D1
:10024000600004C0882311F0109261001092A70092
:100250008091600084FF58C0809161008F3F09F455
:1002600053C0182F893008F018E0811B809361007B
:1002700080918B0098E8892780938B00112391F15E
:100280008091670087FF08C08CE890E0612F53D30E
:10029000182F893098F526C02091A5003091A6002E
:1002A00086FF0DC0ACE8B0E080E090E0F901E80F17
:1002B000F91FE491ED9301961817C1F708C0D90111
:1002C000912FECE8F0E08D9181939150E1F711507E
:1002D000812F90E01F5F0196820F931F9093A600DD
:1002E0008093A5008CE890E0612F3ED0612F6C5F79
:1002F0006C3041F08FEF8093610004C08FEF8093EA
:1003000061006EE16093600094E186B3887131F41E
:100310009150D9F71092A8001092A20010E09923F2
:1003200009F411E080916600811729F0112309F486
:100330009FD310936600DF91CF911F910895A82F4E
:10034000B92F80E090E041E050EA609530E009C0CC
:100350002D9182279795879510F084279527305EF9
:10036000C8F36F5FA8F30895EADF8D939D93089516
:10037000A6E088279927AA9569F00197E1F3B39938
:10038000FCCFB39BFECF81E09927A6B3019611F075
:10039000A871D9F70895CF93CFB7CF93C395B39BE7
:1003A000E9F7B39B0BC0B39B09C0B39B07C0B39BDA
:1003B00005C0B39B03C0B39B01C0D5C00F92DF93B0
:1003C000C091A400DD27C555DF4F012EB39B03C0AC
:1003D000DF910F90E6CF2F930F931F934F932FEF43
:1003E0004F6F06B303FB20F95F933F9350E03BE070
:1003F00065C016B30126502953FDC89556B3012791
:1004000003FB25F92F7306B3B1F05027102713FB18
:1004100026F906B22230F0F000C016B3012703FB24
:1004200027F90126502906B22430E8F54F772068D5
:1004300016B30000F6CF50274F7D206206B2102F72
:10044000000000C006B300265029102713FB26F930
:1004500006B2E2CF4F7B06B3206400C0DACF01269C
:100460005029187106B269F14E7F2160012F16B331
:1004700028C0002650294D7F06B22260102F29C0C7
:10048000012650294B7F06B22460012F2DC016B3E0
:1004900001265029477F2860000006B22EC04F7EFB
:1004A00006B3206130C0422706B349930026502985
:1004B000102706B24FEF13FB20F9297F16B379F20C
:1004C000187159F10126502906B2012703FB21F9C1
:1004D000237F06B371F2002650293150D0F006B2C6
:1004E000102713FB22F9277E16B351F2012650295B
:1004F000012703FB06B223F92F7C49F2000006B363
:10050000102713FB24F90026502906B22F7939F25F
:1005100070CF10E21ABF002719C03B503195C31BA2
:10052000D04010E21ABF0881033C09F10B34F9F006
:100530002091A2001981110F1213EDCF4A81441F9F
:10054000093651F10D3211F0013E29F70093A9004F
:100550003F915F914F911F910F912F91DF910F90DC
:10056000CAB7C5FD1BCFCF91CFBFCF9118952091B2
:10057000A900222369F31091A700112379F53430E3
:100580007AF13093A7002093A3001091A4003BE0E0
:10059000311B3093A40024C00091A7000130F4F473
:1005A0000AE54F7049F43091600034FD1AC00093A1
:1005B0006000CBE8D0E019C03091960034FD11C046
:1005C00000939600C7E9D0E010C0052710E000C0F6
:1005D00021C0052710E0C89508BB14C03AE501C04A
:1005E00032ED032EC0E0D0E032E017B31861C39AB9
:1005F00008B317BB58E120E84FEF20FF052708BBE1
:10060000279517951C3F28F700004552B0F720FFAB
:100610000527279508BB17951C3FB8F629913A95F1
:1006200061F7077E1091A800110F08BBC250D0409F
:1006300011F01093A20010E21ABF086017B3177EE2
:10064000402F477E54E05A95F1F708BB17BB48BBD3
:100650007FCF1092D300880F8093C1000895E0915E
:10066000D300E03138F4EF5FE093D300F0E0EF53D4
:10067000FF4F808308958091D1008F5F8093D100D8
:10068000E1ECF0E0E80FF11D808108958091D20047
:100690009091D100891B08951092D1006093D200EF
:1006A000880F81608093C1006F5F81EC90E0DFD0A4
:1006B000882311F080E0089522D008956091D3003E
:1006C0006F5F81EC90E0D3D01092D300882311F0BB
:1006D00080E0089514D0089507D01092D3001092AE
:1006E000D1001092D2000895C09AC29ABA9AB89ACC
:1006F0008FEF8FB98AE28DB980EF8EB9089580911E
:10070000D40008958EB941E451E06BE224E131E078
:10071000CA010197F1F76DB9B29BFECFC9010197EC
:10072000F1F76DB9769BF4CF81E491E00197F1F791
:100730008FB19FEF9FB9B89A0895C29AC29BFECF1E
:1007400081E491E00197F1F7C09884E191E001978D
:10075000F1F7C298C09A779B02C081E0089583E0C8
:100760008093D40080E00895C098C29AB29BFECFD7
:1007700084E191E00197F1F7C09A81E491E001975B
:10078000F1F7759B02C081E0089584E08093D40066
:1007900080E00895CF92DF92EF92FF920F931F9324
:1007A000CF93DF938C01E62E9091D400892F816046
:1007B0008093D400F801808180FD03C09360909302
:1007C000D400BBDF882309F449C0E801FE2CCC2407
:1007D000CA94DD24D3948091D400837061F1C298CF
:1007E00088818FB980EF8EDFB8988EEF8BDF909184
:1007F000D40080FF09C090FF02C081E001C082E008
:100800008093D40080E02AC0892F8570843071F4F1
:10081000F801808181608083D092D4008EDF8823AC
:1008200019F0E801FE2C14C08AE0EACF21969E7FE1
:100830009093D4000DC0B89880EF64DF8883F1E016
:10084000FF1611F4CFB801C01FB821968EEF5ADF02
:10085000FA9409F0C0CF88DF811181E0DF91CF9158
:100860001F910F91FF90EF90DF90CF90089510921D
:10087000D40090DF0895FC0180818E7F808384E026
:100880008093D400CF0186DF0895DC01FB016091E5
:10089000630050E07D9190E040E820E030E0842F5C
:1008A000872309F0C09A062E00C000000000000057
:1008B0000A94D1F7C29A062E00C000000000000082
:1008C0000A94D1F7990FB1999F5FC098C298469545
:1008D0002F5F3F4F2830310511F790835F5F543011
:1008E00011F03196D7CF089520916E0030916F00AE
:1008F0002F5F3F4F30936F0020936E0021503040A8
:100900008091720087FF02C0220F331F8093730013
:1009100020FF03C0886080937300832F86958093A7
:100920007400369527952093750083E790E067E77C
:1009300070E0ABDF08950F931F93CF93DF93062FE3
:10094000EC0110E005C0D0DF80917A0089931F5F31
:100950001017C8F3802FDF91CF911F910F91089549
:100960007F928F929F92AF92BF92CF92DF92EF923F
:10097000FF920F931F93CF93DF93862EA09070006A
:10098000B090710090906C00C0906D002091630059
:10099000E22EFF2435E0EE0CFF1C3A95E1F78C01C6
:1009A000DD2420E6722E24C0F80180818093760039
:1009B0009BDF80917300872580937300C0E0D0E0B7
:1009C00011C083E790E067E770E05FDF90917A0005
:1009D00080917600981721F4991511F09C1529F44F
:1009E000CE0DDF1DCA15DB0560F3D3940F5F1F4FDB
:1009F000D814D0F281E0DF91CF911F910F91FF9039
:100A0000EF90DF90CF90BF90AF909F908F907F90AE
:100A1000089580E287BB88BB80E090E0B7D28F3F2B
:100A200009F081BFBB9A20E043EB51EFCA01019767
:100A3000F1F72F5F2431D1F7BB982EE088E190E0E9
:100A40000FB6F894A89581BD0FBE21BD27DB789421
:100A5000389A87B187B986B1876086B9379A369A4E
:100A600085B7806485BF3699FECFA89544DBFDCF5E
:100A7000DF92EF92FF920F931F93CF93DF9300E0EB
:100A800040E8D42EEE24FF241D2D100F11BF70DC82
:100A9000EC0189E0C433D8070CF0102FD6940894E9
:100AA000E11CF11C88E0E816F10411F0012FECCFF5
:100AB000115011BF1F5FE12EFF240894E11CF11CAF
:100AC00013C056DC9C012453394037FF03C03095D6
:100AD00021953F4F2C173D0714F09E0101C011B71F
:100AE00081B78F5F81BFE90181B790E0E816F90611
:100AF00044F711BF61B780E090E050D2DF91CF9111
:100B00001F910F91FF90EF90DF900895BF92CF92C9
:100B1000DF92EF92FF920F931F93CF93DF93EC013D
:100B20006981662341F481E28983D093A600C09352
:100B3000A50018E020C2613011F486B3D3C0623042
:100B400011F48A8128C002967A81372F377041E0EC
:100B500050E0032E02C0440F551F0A94E2F7242FE1
:100B6000633021F488B32095282304C0643021F435
:100B700088B3282B28BBFEC1653049F4709363000D
:100B8000B99887B3856287BB88B3887D04C0663017
:100B900021F480E287BB88BBEDC1673041F4BE0120
:100BA00074DED093A600C093A50014E0E4C16830C1
:100BB00031F470936C008B8180936D00DBC18C816C
:100BC0009D8190936F0080936E00693011F480E2F4
:100BD00011C06B3011F480EA0DC08A819B81909323
:100BE0007100809370006A3011F480E403C06C30AF
:100BF00029F480EC809372001FEFBDC16D3029F4A1
:100C000097B3842F8095892304C06E3021F487B375
:100C1000842B87BBAFC16F30E9F497B3772319F406
:100C200017B8BD9809C0713019F477B9BA9804C0E3
:100C3000723011F48FE887B9369A3699FECF84B1B5
:100C4000888385B18983D093A600C093A50097BB04
:100C500012E091C1603159F4B89AB99A8AB5806AA4
:100C60008ABD8AB583608ABD83B785605BC0613108
:100C700021F479BD8C8188BD7DC1623119F488B3BE
:100C8000842B89CF633129F498B3842F80958923ED
:100C900082CF643151F486B390E08423952302C05F
:100CA000959587953A95E2F71DC0653111F57FB9A5
:100CB00080E48EB9F89450916400409165007BE126
:100CC00065E07DB9852F942F9C0105C0862F8A95FC
:100CD000F1F72150304021153105C1F7769BF1CF56
:100CE00078948FB18883D093A600C093A50011E0BB
:100CF00042C1663169F5772319F483B78B7F24C02D
:100D0000713031F483B78B7F83BF83B7826013C0A8
:100D1000723051F483B78B7F83BF83B7826083BF08
:100D200083B7816083BF26C1733049F483B7846081
:100D300083BF83B78D7F83BF83B78E7FF3CF74303C
:100D400009F018C183B7846083BF83B78D7FE7CF75
:100D5000673131F4B99AB898BA9A8AE18DB90AC163
:100D6000683111F4B9DC06C1693119F4872F71DCDF
:100D700001C16A3119F4872F72DCFCC06B3129F490
:100D8000F8949CDC88837894AECF6C3179F4E09150
:100D90006800E03108F0EEC0F0E0E558FF4F7083E6
:100DA000809168008F5F80936800E4C06D3159F5D1
:100DB00070916800609164005091650040E010E41B
:100DC000BBE1A5E019C0E42FF0E0E558FF4F8081BA
:100DD0008FB91EB9F894BDB9862F952F9C0105C017
:100DE0008A2F8A95F1F72150304021153105C1F73E
:100DF000769BF1CF78944F5F471728F340936900B3
:100E000010926800B7C06E31F9F41C81193008F0F7
:100E100018E0F894872F612F3FDC789410926900D6
:100E20000AC029DCFE01E00FF11D8083809169007A
:100E30008F5F8093690000916900011790F3D09350
:100E4000A600C093A50097C06F3149F49B8180E054
:100E5000870F911D90936500809364008BC0603272
:100E600019F41ABC13BE86C0613251F56C81B99871
:100E700087B3856287BBC298F89440E050E820E0D1
:100E800030E0852F872309F0C09A440F86B390E0A5
:100E90008270907095958795480FC29A862F8A9593
:100EA000F1F7C298C09856952F5F3F4F2830310513
:100EB00041F77894D093A600C093A500488317CF3C
:100EC000623211F480E10ECF262F30E0C901807F1D
:100ED0009070803F910509F04DC0F894B8E0EB2E7A
:100EE000F12CE222F32263FDC598709164005091C9
:100EF000650080916A0090916B0040E08901077065
:100F00001070A0E4BA2EFBE1CF2EE5E0DE2E1CC06F
:100F1000FE01EA0FFB1F82818FB9BEB8CDB8872FC3
:100F2000952F9C0105C08D2D8A95F1F721503040F9
:100F300021153105C1F7769BF1CF8FB1AC0FBD1FE5
:100F40008C934F5F8FEF9FEFA42FB0E0A017B107F6
:100F5000FCF290936B0080936A0040936900EF2845
:100F600009F0C59A7894D093A600C093A500162FD7
:100F7000177001C010E0812FDF91CF911F910F9169
:100F8000FF90EF90DF90CF90BF900895E199FECF52
:100F90009FBB8EBBE09A99278DB30895262FE199C8
:100FA000FECF1CBA9FBB8EBB2DBB0FB6F894E29A46
:0C0FB000E19A0FBE01960895F894FFCF5F
:060FBC005AFF10280A0094
:00000001FF
